:100000000C945E000C9486000C9486000C94860080
:100010000C9486000C9486000C9486000C942603A5
:100020000C9486000C9486000C9486000C94860038
:100030000C9486000C9486000C9486000C94860028
:100040000C9452040C9486000C947D020C9457027C
:100050000C9486000C9486000C9486000C94860008
:100060000C9486000C948600000000080002010039
:100070000003040700000000000000000200000070
:1000800000250028002B0000000000240027002A83
:100090000004040404040404040202020202020331
:1000A000030303030301020408102040800102043B
:1000B00008102001020408102000EC0C11241FBEBF
:1000C000CFEFD8E0DEBFCDBF11E0A0E0B1E0E0E9C6
:1000D000FFE102C005900D92A238B107D9F722E0E6
:1000E000A2E8B1E001C01D92AA38B207E1F710E022
:1000F000CEE5D0E004C02197FE010E94780DCD35F9
:10010000D107C9F70E9493080C94C60F0C94000005
:10011000CF92DF92EF92FF920F931F93CF93DF93D3
:100120006C017A018B01C0E0D0E0CE15DF0589F0CB
:10013000D8016D918D01D601ED91FC910190F08176
:10014000E02DC6010995892B11F47E0102C021968C
:10015000ECCFC701DF91CF911F910F91FF90EF90EE
:10016000DF90CF900895FC01918D828D981761F0FA
:10017000828DDF01A80FB11D5D968C91928D9F5FDE
:100180009F73928F90E008958FEF9FEF0895FC0189
:10019000918D828D981731F0828DE80FF11D858D3C
:1001A00090E008958FEF9FEF0895FC01918D228DCF
:1001B000892F90E0805C9F4F821B91098F73992754
:1001C000089587EC91E00E94D50021E0892B09F485
:1001D00020E0822F0895FC01848DDF01A80FB11D5E
:1001E000A35ABF4F2C91848D90E001968F7399276D
:1001F000848FA689B7892C93A089B1898C9180645A
:100200008C93938D848D981306C00288F389E02D1A
:1002100080818F7D80830895EF92FF920F931F93CB
:10022000CF93DF93EC0181E0888F9B8D8C8D9813A9
:1002300005C0E889F989808185FD24C0F62E0B8DE3
:1002400010E00F5F1F4F0F731127E02E8C8DE81207
:100250000CC00FB607FCFACFE889F989808185FFC9
:10026000F5CFCE010E94EB00F1CF8B8DFE01E80FA0
:10027000F11DE35AFF4FF0820B8FEA89FB898081E1
:10028000806207C0EE89FF896083E889F9898081EF
:100290008064808381E090E0DF91CF911F910F9186
:1002A000FF90EF900895CF93DF93EC01888D882322
:1002B000C9F0EA89FB89808185FD05C0A889B989D3
:1002C0008C9186FD0FC00FB607FCF5CF808185FFAE
:1002D000F2CFA889B9898C9185FFEDCFCE010E941C
:1002E000EB00E7CFDF91CF91089580E090E0892B7C
:1002F00029F00E94E10081110C94000008958E30D5
:1003000008F08E508770806480937C0080917A0022
:10031000806480937A0080917A0086FDFCCF809182
:1003200078002091790090E0922B08953FB7F894DF
:100330008091830190918401A0918501B091860103
:1003400026B5A89B05C02F3F19F00196A11DB11D30
:100350003FBFBA2FA92F982F8827820F911DA11D6B
:10036000B11DBC01CD0142E0660F771F881F991FA8
:100370004A95D1F708958F929F92AF92BF92CF92F4
:10038000DF92EF92FF926B017C010E9496014B017C
:100390005C01C114D104E104F104F1F00E94960162
:1003A000DC01CB0188199909AA09BB09883E934051
:1003B000A105B10570F321E0C21AD108E108F108E6
:1003C00088EE880E83E0981EA11CB11CC114D104D4
:1003D000E104F10419F7DDCFFF90EF90DF90CF90AB
:1003E000BF90AF909F908F9008950E949D0E6115D1
:1003F000710579F0FB0101900020E9F73197AF0119
:10040000461B570BDC01ED91FC910280F381E02D3E
:10041000099480E090E008954F925F926F927F92EE
:10042000EF92FF920F931F93CF93DF93CDB7DEB779
:10043000A1970FB6F894DEBF0FBECDBF7C01FA01C5
:10044000CB0119A2223008F42AE08E010F5D1F4F64
:10045000422E512C612C712CBF01A30192010E94EC
:10046000370DF901CA01015011096A3014F4605DB9
:1004700001C0695CD8016C93232B242B252B61F7D9
:10048000B801C7010E94F701A1960FB6F894DEBF2C
:100490000FBECDBFDF91CF911F910F91FF90EF90D5
:1004A0007F906F905F904F9008950C94F7011F928A
:1004B0000F920FB60F9211242F933F934F935F9398
:1004C0006F937F938F939F93AF93BF93EF93FF931C
:1004D00087EC91E00E94EB00FF91EF91BF91AF910B
:1004E0009F918F917F916F915F914F913F912F914C
:1004F0000F900FBE0F901F9018951F920F920FB67E
:100500000F9211242F938F939F93EF93FF93E0917A
:10051000D701F091D8018081E091DD01F091DE01F9
:1005200082FD12C090818091E0018F5F8F732091D6
:10053000E101821751F0E091E001F0E0E953FE4F54
:10054000958F8093E00101C08081FF91EF919F9191
:100550008F912F910F900FBE0F901F90189590E0E4
:10056000FC01E859FF4F3491FC01EB55FF4F2491FA
:10057000FC01EF56FF4FE491EE2309F43BC0332317
:1005800039F1333091F038F43130A9F0323001F5DF
:1005900084B58F7D12C0373091F03830A1F03430FF
:1005A000B9F4809180008F7D03C0809180008F77A7
:1005B000809380000DC084B58F7784BD09C0809181
:1005C000B0008F7703C08091B0008F7D8093B00022
:1005D000F0E0EE0FFF1FE358FF4FA591B4918FB7E6
:1005E000F894EC91611103C020952E2301C02E2BAD
:1005F0002C938FBF089590910301981324C0ECE7CA
:10060000F0E0E4919FEF90930301E130B9F098F0AE
:10061000E230C9F4909170009D7F9093700091E05A
:100620009093B0009091B100987F94609093B10046
:100630001092B30008C010926E0005C090916F0038
:100640009D7F90936F0060E00C94AF021F920F9219
:100650000FB60F9211242F933F934F935F936F9395
:100660007F938F939F93AF93BF93EF93FF9380916B
:10067000BF019091C001A091C101B091C201892B2D
:100680008A2B8B2B51F18091BC01E091BD01F0913F
:10069000BE019081892780838091BF019091C00124
:1006A000A091C101B091C201181619061A061B06C5
:1006B000C4F48091BF019091C001A091C101B0919B
:1006C000C2010197A109B1098093BF019093C001B4
:1006D000A093C101B093C20104C0809103010E94A4
:1006E000FB02FF91EF91BF91AF919F918F917F910D
:1006F0006F915F914F913F912F910F900FBE0F908F
:100700001F901895AF92BF92CF92DF92EF92FF9217
:100710000F931F93CF93DF938C015A01C0E0D0E079
:100720006B01770FEE08FF08CA15DB0584F4C801DA
:100730000E942906C701B6010E94BB0183E00E9406
:10074000FB02C701B6010E94BB012196EDCFDF91EC
:10075000CF911F910F91FF90EF90DF90CF90BF90BE
:10076000AF9008951F93CF93DF93182FEB010E9452
:100770002505209711F460E004C0CF3FD10539F47E
:1007800061E0812FDF91CF911F910C94AF02E12F97
:10079000F0E0E859FF4FE491E330F9F048F4E1303C
:1007A000B9F0E230A1F584B5806284BDC8BD34C023
:1007B000E730E9F0E83019F1E43049F58091800044
:1007C000806280938000D0938B00C0938A0024C005
:1007D00084B5806884BDC7BD1FC0809180008068DB
:1007E00080938000D0938900C093880015C08091C9
:1007F000B00080688093B000C093B3000DC08091BA
:10080000B00080628093B000C093B40005C0C038CF
:10081000D1050CF0B5CFAFCFDF91CF911F910895E7
:10082000EF92FF920F931F93CF93DF937B018A0187
:1008300020918801222331F000E010E0E12CF12C1E
:1008400080E090E0CFEFD0E0BE01681B790B8AE03A
:100850000E94B203BE016E197F098BE00E94B203B1
:10086000BE01601B710B8CE0DF91CF911F910F9146
:10087000FF90EF900C94B203CF93DF93EC0160E014
:100880008E810E94AF0261E08E810E94AF0260E023
:100890008E810E94AF028BE891E00197F1F7DF9122
:1008A000CF9108951F920F920FB60F9211242F939C
:1008B0003F938F939F93AF93BF938091C301909188
:1008C000C401A091C501B091C6013091820123E01D
:1008D000230F2D3720F40196A11DB11D05C026E878
:1008E000230F0296A11DB11D209382018093C301A5
:1008F0009093C401A093C501B093C6018091830178
:1009000090918401A0918501B09186010196A11D6D
:10091000B11D8093830190938401A0938501B093CE
:100920008601BF91AF919F918F913F912F910F9031
:100930000FBE0F901F901895CF92DF92EF92FF920B
:100940000F931F93CF93DF937C016C0187E0C80E58
:10095000D11CC0E0D0E0062F10E0B8010C2E02C080
:10096000759567950A94E2F76170F60181916F01C0
:100970000E94AF022196C430D10579F7C701DF91FB
:10098000CF911F910F91FF90EF90DF90CF900C943B
:100990003C04CF92DF92EF92FF920F931F93CF937D
:1009A000DF93EC01F62E642F8C810E94AF028D81C3
:1009B0008F3F19F060E00E94AF028F850F2D10E08D
:1009C00084FF25C06E0187E0C80ED11CE12CF12CFC
:1009D000B8010E2C02C0759567950A94E2F7617014
:1009E000F60181916F010E94AF02FFEFEF1AFF0A3B
:1009F00088E0E816F10461F7CE01DF91CF911F91F5
:100A00000F91FF90EF90DF90CF900C943C04B801D1
:100A100084E0759567958A95E1F7CE010E949C0464
:100A20006F2DCE01DF91CF911F910F91FF90EF902D
:100A3000DF90CF900C949C0441E00E94C90481E0B7
:100A400090E0089540E00C94C90490E0FC01EB555F
:100A5000FF4F2491FC01EF56FF4F8491882399F0BA
:100A600090E0880F991FFC01E957FF4FA591B491C1
:100A7000FC01E358FF4F859194918FB7F894EC9166
:100A8000E22BEC938FBF0895EF92FF920F931F9389
:100A9000CF93DF93EC01623018F08F8588608F87E9
:100AA0006B8B1C8A80E48D8B80E18E8B80E58F8B35
:100AB0008C810E9425058D818F3F11F00E942505B4
:100AC0008E810E9425057E0187E0E80EF11C00E082
:100AD00010E08F8584FD03C084E090E002C088E0D0
:100AE00090E00817190744F4F70181917F010E94F3
:100AF00025050F5F1F4FEDCF8BE39DE00197F1F7C9
:100B000060E08C810E94AF0260E08E810E94AF02A3
:100B10008D818F3F19F060E00E94AF026F8564FD08
:100B20001DC063E0CE010E949C040BE416E4C801E2
:100B30000197F1F763E0CE010E949C04C801019780
:100B4000F1F763E0CE010E949C0483E592E00197F7
:100B5000F1F762E0CE010E949C0416C06062CE01F3
:100B60000E9422058BE496E40197F1F76F8560629D
:100B7000CE010E94220583E592E00197F1F76F858F
:100B80006062CE010E9422056F856062CE010E94E4
:100B9000220584E0888B6CE0CE010E94220561E092
:100BA000CE010E9422058BE39FE10197F1F782E0DD
:100BB000898B66E0CE01DF91CF911F910F91FF905D
:100BC000EF900C9422052FB7F8948091C301909177
:100BD000C401A091C501B091C6012FBF8093CF0180
:100BE0009093D001A093D101B093D201E091C701BD
:100BF000F091C8010680F781E02D87EC91E009951E
:100C000097FF26C02FB7F8948091C3019091C4013B
:100C1000A091C501B091C6012FBF4091CF01509165
:100C2000D0016091D1017091D201841B950BA60B6C
:100C3000B70B4091CB015091CC016091CD017091E7
:100C4000CE0184179507A607B70780F28FEF9FEFB5
:100C500008958F929F92AF92BF92CF92DF92EF92C0
:100C6000FF92CF9320910301233021F02F3F09F011
:100C7000EFC104C0ECE7F0E0C49172C023E0209320
:100C80000301ECE7F0E0C491CF3F09F4E1C1C130CA
:100C900009F1C23009F441C0C11162C014BC15BCD5
:100CA00024B5226024BD25B5216025BDE4E9F0E02E
:100CB000E491F0E0EE0FFF1FE358FF4F25913491D0
:100CC0003093810220938002E8EAF0E0E491E0931F
:100CD0007F0248C010928000109281002091810014
:100CE0002860209381002091810021602093810061
:100CF000E4E9F0E0E491F0E0EE0FFF1FE358FF4F6E
:100D00002591349130937E0220937D02E8EAF0E051
:100D1000E491E0937C02C1E025C01092B0001092F3
:100D2000B1002091B00022602093B0002091B1006A
:100D300021602093B100E4E9F0E0E491F0E0EE0FEF
:100D4000FF1FE358FF4F259134913093BE0120934C
:100D5000BD01E8EAF0E0E491E093BC01C2E002C02A
:100D6000C7FD76C14C0183E00E942505A12CB12C62
:100D70008C2F8D7F09F0A9C060E072E18AE790E0D6
:100D8000A50194010E94590D69017A01BA01A901D6
:100D900041505109610971094F3F510561057105C4
:100DA00009F008F445C060E472E48FE090E0A5012A
:100DB00094010E94590DBA01A901415051096109DC
:100DC0007109C230E9F44F3F51056105710509F021
:100DD00008F43CC160E970ED83E090E0A501940166
:100DE0000E94590DBA01A9014150510961097109C7
:100DF0004F3F51056105710509F0A8F583E05EC01C
:100E00004F3F510561057105A9F0A0F068E478EE47
:100E100081E090E0A50194010E94590DBA01A90159
:100E20004150510961097109CC2309F4BEC006C1C2
:100E300081E001C082E0CC2389F040C0D701C60127
:100E40002AE0B595A795979587952A95D1F7AC0196
:100E5000BD01415051096109710985E095B5987F3F
:100E6000892B85BD66C068E478EE81E090E0A5013D
:100E700094010E94590DBA01A9014150510961091B
:100E800071094F3F51056105710509F008F48BC0E8
:100E900064E274EF80E090E0A50194010E94590D96
:100EA000BA01A90141505109610971094F3F51052A
:100EB0006105710511F008F097C085E09091B100CF
:100EC000987F892B8093B1002EC060E072E18AE7A1
:100ED00090E0A50194010E94590DBA01A901415069
:100EE0005109610971094115510581E068077105D2
:100EF00080F068E478EE81E090E0A50194010E9422
:100F0000590DBA01A901415051096109710993E0D4
:100F100001C091E0C13039F480918100887F892B34
:100F20008093810018C0C130B1F0C23049F1C111C5
:100F30008FC047BD8FEF9FEFDC01809386029093B7
:100F40008702A0938802B093890280916E0082602C
:100F500080936E007DC050938900409388008FEF8E
:100F60009FEFDC018093820290938302A09384021E
:100F7000B093850280916F00826080936F0068C09B
:100F80004093B3008FEF9FEFDC018093BF019093FC
:100F9000C001A093C101B093C20180917000826032
:100FA0008093700055C084E089CF4F3F51056105A3
:100FB0007105C1F0B8F062E17AE780E090E0A50148
:100FC00094010E94590DBA01A901415051096109CA
:100FD00071094F3F51056105710511F008F02ECFE1
:100FE00084E03CCF83E03ACF62E17AE780E090E0B2
:100FF000A50194010E94590DBA01A901415051095E
:10100000610971094F3F510561057105A9F0A0F013
:10101000D701C6013AE0B595A795979587953A957A
:10102000D1F7AC01BD014150510961097109CC23CF
:1010300009F413CF87E042CF86E0FDCE4F3F510544
:101040006105710509F080F684E0F5CE82E036CFC7
:10105000CF91FF90EF90DF90CF90BF90AF909F9097
:101060008F900895843008F083E09091770289177B
:1010700010F08FEF890FE82FF0E0EC59FD4F6489F5
:10108000606884E692E00C942205CF92DF92EF92A2
:10109000FF920F931F93CF93DF936B01770FEE08AF
:1010A000FF08F7FE1FC0EC01E881F9810190F08193
:1010B000E02D6DE209958C0144275527BA014C19A2
:1010C0005D096E097F092AE0CE010E940C02800FA3
:1010D000911FDF91CF911F910F91FF90EF90DF90C3
:1010E000CF9008952AE0B701A601DF91CF911F911B
:1010F0000F91FF90EF90DF90CF900C940C02CF9364
:10110000DF9365E571E087EC91E00E94F701EC0167
:1011100062E571E087EC91E00E94F7018C0F9D1F62
:10112000DF91CF910895789484B5826084BD84B5B1
:10113000816084BD85B5826085BD85B5816085BDD2
:1011400080916E00816080936E001092810080918A
:101150008100826080938100809181008160809312
:101160008100809180008160809380008091B10037
:1011700084608093B1008091B00081608093B00062
:1011800080917A00846080937A0080917A008260F6
:1011900080937A0080917A00816080937A008091B8
:1011A0007A00806880937A001092C100E091D701A4
:1011B000F091D80182E08083E091D301F091D401D5
:1011C0001082E091D501F091D6018FEC80831092CE
:1011D000DF01E091DB01F091DC0186E08083E091AA
:1011E000D901F091DA01808180618083E091D90199
:1011F000F091DA01808188608083E091D901F091DB
:10120000DA01808180688083E091D901F091DA0170
:1012100080818F7D80838CED95E0A0E0B0E08093AD
:10122000CB019093CC01A093CD01B093CE0162E0AD
:1012300084E692E00E94440580E00E9432086CE15E
:1012400071E084E692E00E94550281E00E9432083B
:101250006AE271E084E692E00E94550289E00E9411
:10126000250560E089E00E94AF0288E00E94250524
:1012700061E088E00E94AF028AE00E9425058BE0D1
:101280000E9425058CE00E9425056FEF70E089E043
:101290000E94B203C0E0D0E0C230D10581F0C3307B
:1012A000D10591F040E050E0C130D10519F060E087
:1012B00070E002C06FEF70E08FEF90E00BC040E095
:1012C00050E06FEF70E004C04FEF50E060E070E07E
:1012D00080E090E00E94100488EE93E00E942906CE
:1012E00068EC70E080E090E00E94BB0140E050E0DC
:1012F00060E070E080E090E00E94100483E00E94D3
:10130000FB0264E670E080E090E00E94BB01219661
:10131000C430D10509F64FEF50E060E070E08FEF88
:1013200090E00E94100460E070E089E00E94B20347
:1013300073E0272E312C02E010E0C1E0D0E00E94E3
:10134000E30597FD06C082349105C9F780E090E07F
:1013500002C08FEF9FEF892B99F56DE9E62E61E0D2
:10136000F62E67010E94E30597FF07C080919D015B
:101370008D3431F580E090E009C0F60181936F0172
:10138000FCEBCF16F1E0DF0669F7F0CFF701219112
:101390007F01820F911DFAEBEF16F1E0FF06B1F726
:1013A0009C012E5B3F4F8091BA0190E0982F8827D7
:1013B0004091BB01840F911D2817390709F4E4C23D
:1013C0006BE371E087EC91E00E94550260919B0114
:1013D00070919C0187EC91E00E9445080E947F0873
:1013E00063E471E087EC91E00E94550260919901FD
:1013F00070919A0187EC91E00E9445080E947F0855
:101400006BE471E087EC91E00E94550260919701D6
:101410007091980187EC91E00E9445080E947F0836
:1014200062E571E087EC91E00E94F701609197011D
:1014300070919801072E000C880B990B0E94A90E41
:101440002091930130919401409195015091960122
:101450000E947F0D2B013C016093930170939401D6
:1014600080939501909396016091990170919A01F2
:10147000072E000C880B990B0E94A90E20918F015A
:101480003091900140919101509192010E947F0D05
:101490006B017C0160938F017093900180939101A7
:1014A0009093920160918D0170918E016F5F7F4FDB
:1014B00070938E0160938D0165307105B4F1072E34
:1014C000000C880B990B0E94A90E4B015C019B013B
:1014D000AC01C301B2010E94EB0D0E945D0E70933E
:1014E0008C0160938B01A5019401C701B6010E9494
:1014F000EB0D0E945D0E70938A016093890110923A
:1015000093011092940110929501109296011092FD
:101510008F011092900110929101109292011092FD
:101520008E0110928D011092020180910201882398
:1015300081F160918D0170918E01072E000C880B56
:10154000990B0E94A90E6B017C019B01AC0160917B
:1015500093017091940180919501909196010E9460
:10156000EB0D0E945D0E70938C0160938B01A701BF
:10157000960160918F0170919001809191019091FD
:1015800092010E94EB0D0E945D0E70938A016093A0
:10159000890180E00E94320863E471E084E692E011
:1015A0000E9455026091890170918A0184E692E05F
:1015B0000E94450865E571E084E692E00E945502CC
:1015C00061E671E084E692E00E94550281E00E94AB
:1015D00032086CE571E084E692E00E945502609169
:1015E0008B0170918C0184E692E00E94450865E5CC
:1015F00071E084E692E00E94550261E671E084E6C3
:1016000092E00E94550240918B0150918C01809193
:101610008701443651053CF42091890130918A01BB
:101620002233310534F1811105C06FEF70E089E09C
:101630000E94B20340E050E060E070E08FEF90E085
:101640000E9410048091000190910101039761F0C4
:1016500080918801811108C044E050E068EE73E099
:1016600080E590E00E948203309201012092000107
:101670007DC0423351051CF42931310534F181110B
:1016800005C06FEF70E089E00E94B20340E050E0D7
:101690006FEF70E08FEF90E00E94100480910001E6
:1016A00090910101029761F080918801811108C039
:1016B00043E050E064EF71E080E991E00E94820332
:1016C000109301010093000151C0493151051CF4F0
:1016D0002A30310534F1811105C06FEF70E089E0E7
:1016E0000E94B20340E050E06FEF70E080E090E0D5
:1016F0000E9410048091000190910101019761F016
:1017000080918801811108C042E050E064E670E0F9
:1017100088EE93E00E948203D0930101C093000100
:1017200025C0811105C060E070E089E00E94B2032D
:101730004FEF50E060E070E080E090E00E94100425
:101740008091000190910101892B61F080918801C5
:10175000811108C041E050E069E170E088EB9BE056
:101760000E948203109201011092000180E00E9409
:101770007F01BC01990F880B990B0E94A90E20E0F4
:1017800030E040EA50E40E94080F20E030EC4FE7E0
:1017900054E40E94EB0D6B017C0120E030E040E05E
:1017A00050E40E94A20E87FF04C081E0809388016C
:1017B00002C01092880164E671E087EC91E00E941B
:1017C0005502A7019601C701B6010E94980E882311
:1017D00019F063E771E01AC046015701E894B7F8C1
:1017E0002FEF3FEF4FE75FE7C501B4010E94980E6E
:1017F000811111C02FEF3FEF4FE75FE7C501B40143
:101800000E94A20E18163CF467E771E087EC91E0A5
:101810000E94F70184C02FEF3FEF4FE75FE4C7015D
:10182000B6010E94930E18161CF46BE771E0EECF20
:101830002FEF3FEF4FE75FECC701B6010E94A20E0A
:1018400087FDF3CF20E030E0A901C701B6010E9477
:10185000A20E87FF0FC0E091C701F091C80101906F
:10186000F081E02D6DE287EC91E00995F7FAF094B4
:10187000F7F8F0942AE037ED43EA5BE3C701B601DD
:101880000E947F0D4B015C010E94640E6B017C0184
:101890000E94A70E9B01AC01C501B4010E947E0D00
:1018A0004B015C012AE0B701A60187EC91E00E94A0
:1018B0000C026FE771E087EC91E00E94F70120E0F5
:1018C00030E040E251E4C501B4010E94080F4B0131
:1018D0005C010E94640E6B01E12CF12C2AE0B7013F
:1018E000A60187EC91E00E940C02C701B6010E949C
:1018F000A70E9B01AC01C501B4010E947E0D20E042
:1019000030E040E251E40E94080F0E94640EAB01F7
:1019100060E070E02AE087EC91E00E940C0262E552
:1019200071E087EC91E00E94F70181E00E947F0165
:10193000BC01990F880B990B0E94A90E20E030E0A2
:1019400040EA50E40E94080F20E030EC4FE754E4F6
:101950000E94EB0D20E030E040E450E40E94930E42
:10196000181624F481E08093870102C01092870149
:1019700080918701882329F06FEF70E089E00E9451
:10198000B2030E947501DBCC8091A00190E0982FFA
:1019900088272091A101820F911D90939C01809333
:1019A0009B018091A20190E0982F88272091A301AC
:1019B000820F911D90939A01809399018091A401C7
:1019C00090E0982F88272091A501820F911D909378
:1019D000980180939701F4CCE7ECF1E01382128236
:1019E00088EE93E0A0E0B0E084839583A683B7837C
:1019F00088E091E09183808385EC90E095878487EF
:101A000084EC90E09787868780EC90E0918B808BC8
:101A100081EC90E0938B828B82EC90E0958B848BB1
:101A200086EC90E0978B868B118E128E138E148E1F
:101A3000E4E6F2E01382128288E191E091838083F0
:101A400082E084838FEF85838DE0868384E08783C3
:101A500085E0808786E0818787E082871386148609
:101A600015861686178661E0CF010C944405A1E225
:101A70001A2EAA1BBB1BFD010DC0AA1FBB1FEE1F08
:101A8000FF1FA217B307E407F50720F0A21BB30B53
:101A9000E40BF50B661F771F881F991F1A9469F7CF
:101AA00060957095809590959B01AC01BD01CF012B
:101AB0000895052E97FB1EF400940E94700D57FDAB
:101AC00007D00E94370D07FC03D04EF40C94700D24
:101AD00050954095309521953F4F4F4F5F4F08955A
:101AE00090958095709561957F4F8F4F9F4F08958A
:101AF000EE0FFF1F0590F491E02D09945058BB277D
:101B0000AA270E94960D0C948C0F0E947E0F38F02D
:101B10000E94850F20F039F49F3F19F426F40C94AD
:101B20007B0F0EF4E095E7FB0C94750FE92F0E94F4
:101B30009D0F58F3BA17620773078407950720F0C3
:101B400079F4A6F50C94BF0F0EF4E0950B2EBA2F86
:101B5000A02D0B01B90190010C01CA01A0011124B3
:101B6000FF27591B99F0593F50F4503E68F11A165F
:101B7000F040A22F232F342F4427585FF3CF4695F0
:101B800037952795A795F0405395C9F77EF41F1612
:101B9000BA0B620B730B840BBAF09150A1F0FF0FDC
:101BA000BB1F661F771F881FC2F70EC0BA0F621FC8
:101BB000731F841F48F4879577956795B795F795B8
:101BC0009E3F08F0B0CF9395880F08F09927EE0F4D
:101BD0009795879508950E94FF0D0C948C0F0E9495
:101BE000850F58F00E947E0F40F029F45F3F29F0E6
:101BF0000C94750F51110C94C00F0C947B0F0E9424
:101C00009D0F68F39923B1F3552391F3951B550B61
:101C1000BB27AA2762177307840738F09F5F5F4FBF
:101C2000220F331F441FAA1FA9F335D00E2E3AF0FE
:101C3000E0E832D091505040E695001CCAF72BD016
:101C4000FE2F29D0660F771F881FBB1F2617370767
:101C50004807AB07B0E809F0BB0B802DBF01FF2799
:101C600093585F4F3AF09E3F510578F00C94750FF2
:101C70000C94C00F5F3FE4F3983ED4F386957795BC
:101C80006795B795F7959F5FC9F7880F911D969552
:101C9000879597F90895E1E0660F771F881FBB1FAE
:101CA000621773078407BA0720F0621B730B840B5B
:101CB000BA0BEE1F88F7E09508950E94640E6894B1
:101CC000B1110C94C00F08950E94A50F88F09F5782
:101CD00098F0B92F9927B751B0F0E1F0660F771F50
:101CE000881F991F1AF0BA95C9F714C0B13091F046
:101CF0000E94BF0FB1E008950C94BF0F672F782F9B
:101D00008827B85F39F0B93FCCF38695779567950A
:101D1000B395D9F73EF490958095709561957F4F76
:101D20008F4F9F4F08950E94E40E08F48FEF08959F
:101D30000E94E40E880B990B089581E090E0F894DE
:101D40000C94C60F0E94E40E08F481E00895E89414
:101D500009C097FB3EF490958095709561957F4FF3
:101D60008F4F9F4F9923A9F0F92F96E9BB279395A1
:101D7000F695879577956795B795F111F8CFFAF4B1
:101D8000BB0F11F460FF1BC06F5F7F4F8F4F9F4FE2
:101D900016C0882311F096E911C0772321F09EE840
:101DA000872F762F05C0662371F096E8862F70E0A6
:101DB00060E02AF09A95660F771F881FDAF7880F80
:101DC0009695879597F90895990F0008550FAA0BD6
:101DD000E0E8FEEF16161706E807F907C0F012163E
:101DE0001306E407F50798F0621B730B840B950B41
:101DF00039F40A2661F0232B242B252B21F4089596
:101E00000A2609F4A140A6958FEF811D811D089532
:101E10000E941B0F0C948C0F0E947E0F38F00E94C2
:101E2000850F20F0952311F00C94750F0C947B0F07
:101E300011240C94C00F0E949D0F70F3959FC1F365
:101E4000950F50E0551F629FF001729FBB27F00D68
:101E5000B11D639FAA27F00DB11DAA1F649F6627BD
:101E6000B00DA11D661F829F2227B00DA11D621F0C
:101E7000739FB00DA11D621F839FA00D611D221FC6
:101E8000749F3327A00D611D231F849F600D211DAA
:101E9000822F762F6A2F11249F5750409AF0F1F02D
:101EA00088234AF0EE0FFF1FBB1F661F771F881F96
:101EB00091505040A9F79E3F510580F00C94750F4A
:101EC0000C94C00F5F3FE4F3983ED4F3869577956A
:101ED0006795B795F795E7959F5FC1F7FE2B880F3C
:101EE000911D9695879597F9089597F99F6780E8D2
:101EF00070E060E008959FEF80EC089500240A945C
:101F00001616170618060906089500240A941216D4
:101F10001306140605060895092E0394000C11F407
:101F2000882352F0BB0F40F4BF2B11F460FF04C0B4
:101F30006F5F7F4F8F4F9F4F089557FD9058440F0D
:101F4000551F59F05F3F71F04795880F97FB991F18
:101F500061F09F3F79F087950895121613061406D5
:101F6000551FF2CF4695F1DF08C016161706180662
:101F7000991FF1CF86957105610508940895E8943D
:101F8000BB2766277727CB0197F90895F894FFCFF1
:101F9000FFFF01FF000000000C018800D500B30026
:101FA000C7005301000000001C058800437A756AD1
:101FB0006E696B20736D6F677500506F7A64722E57
:101FC000204772617A796E6B652100504D312E3059
:101FD0003A2000504D322E353A2000504D31303AE3
:101FE00020000D0A002075672F6D3300504D3130F1
:101FF0003A202000466F746F20766F6C74616765BD
:102000003A20006E616E00696E66006F7666002E83
:022010000000CE
:107E0000112484B714BE81FFF0D085E080938100F7
:107E100082E08093C00088E18093C10086E0809377
:107E2000C20080E18093C4008EE0C9D0259A86E02C
:107E300020E33CEF91E0309385002093840096BBD3
:107E4000B09BFECF1D9AA8958150A9F7CC24DD24C4
:107E500088248394B5E0AB2EA1E19A2EF3E0BF2EE7
:107E6000A2D0813461F49FD0082FAFD0023811F036
:107E7000013811F484E001C083E08DD089C08234E0
:107E800011F484E103C0853419F485E0A6D080C0E4
:107E9000853579F488D0E82EFF2485D0082F10E0AE
:107EA000102F00270E291F29000F111F8ED06801E7
:107EB0006FC0863521F484E090D080E0DECF843638
:107EC00009F040C070D06FD0082F6DD080E0C81688
:107ED00080E7D80618F4F601B7BEE895C0E0D1E017
:107EE00062D089930C17E1F7F0E0CF16F0E7DF06D8
:107EF00018F0F601B7BEE89568D007B600FCFDCFD4
:107F0000A601A0E0B1E02C9130E011968C91119780
:107F100090E0982F8827822B932B1296FA010C0160
:107F200087BEE89511244E5F5F4FF1E0A038BF0790
:107F300051F7F601A7BEE89507B600FCFDCF97BE46
:107F4000E89526C08437B1F42ED02DD0F82E2BD052
:107F50003CD0F601EF2C8F010F5F1F4F84911BD097
:107F6000EA94F801C1F70894C11CD11CFA94CF0C13
:107F7000D11C0EC0853739F428D08EE10CD085E9AC
:107F80000AD08FE07ACF813511F488E018D01DD067
:107F900080E101D065CF982F8091C00085FFFCCF94
:107FA0009093C60008958091C00087FFFCCF809118
:107FB000C00084FD01C0A8958091C6000895E0E648
:107FC000F0E098E1908380830895EDDF803219F02E
:107FD00088E0F5DFFFCF84E1DECF1F93182FE3DFCA
:107FE0001150E9F7F2DF1F91089580E0E8DFEE27F6
:047FF000FF270994CA
:027FFE00040479
:0400000300007E007B
:00000001FF
